:03000000020036C5
:0C003600787FE4F6D8FD75810B02007D98
:08014D0002080001020A00078C
:10012000D3EF9400EE940040147D7C7C00ED1D70B4
:0D013000011CED4C70F7EF1F70E61E80E320
:01013D00229F
:03003300020003C5
:10000300C0E0C0D075D000C004C005C006C0072042
:10001300EB0D7508FF7509FF7F0A7E00120120D0E2
:0C00230007D006D005D004D0D0D0E032C9
:0F013E00A8077401088002C333D8FCF4F5A0228F
:1000C200D2C0D2C275B740D2C3D2AFAF0BAE0A1202
:1000D200013E7FE87E03120120E509B4FF0EE50828
:1000E200B4FF0930EB06750800750901E509250B17
:1000F200F50BE508350AF50AC3E50B9405E50A9404
:10010200005008750A00750B0780C0D3E50B9407F1
:0E011200E50A940040B5750A00750B0580AD36
:100042000200C2E493A3F8E493A34003F68001F212
:1000520008DFF48029E493A3F85407240CC8C333BF
:10006200C4540F4420C8834004F456800146F6DF8E
:10007200E4800B010204081020408090014DE47ED0
:10008200019360BCA3FF543F30E509541FFEE49383
:10009200A360010ECF54C025E060A840B8E493A34A
:1000A200FAE493A3F8E493A3C8C582C8CAC583CA75
:1000B200F0A3C8C582C8CAC583CADFE9DEE780BE2D
:0101550000A9
:00000001FF
