:0300000002007C7F
:0C007C00787FE4F6D8FD758107020003D0
:080030007E0012006D7FF40E4A
:10003800D3EF9400EE940040147D7C7C00ED1D709D
:0D004800011CED4C70F7EF1F70E61E80E309
:010055002288
:0F006D00A8077401088002C333D8FCF4F5A02261
:100056007F071200307F061200307F057E001200F7
:070066006D7FF40E0200386B
:0400880075A0FF223E
:10000300E4FB20EB197F0A7E00120038EB70047FBB
:100013000180027F00AB077FE87E03120038EB64A8
:0D00230001700512005680DA12008880D5A9
:00000001FF
