:03000000020036C5
:0C003600787FE4F6D8FD75810B02007D98
:08014700020A00050208000194
:10011A00D3EF9400EE940040147D7C7C00ED1D70BA
:0D012A00011CED4C70F7EF1F70E61E80E326
:0101370022A5
:05015000D2C2D2C02262
:0F013800A8077401088002C333D8FCF4F5A02295
:03003300020003C5
:10000300C0E0C0D075D000C004C005C006C0072042
:10001300EB0D7508FF7509FF7F0A7E0012011AD0E8
:0C00230007D006D005D004D0D0D0E032C9
:1000C200120150D2AFAF0BAE0A1201387FE87E03A5
:1000D20012011A30EB10E509B4FF0BE508B4FF0674
:1000E200750800750901E509250BF50BE508350AC8
:1000F200F50AC3E50B9405E50A94005008750A0059
:10010200750B0780C0D3E50B9407E50A940040B550
:08011200750A00750B0580ADB4
:100042000200C2E493A3F8E493A34003F68001F212
:1000520008DFF48029E493A3F85407240CC8C333BF
:10006200C4540F4420C8834004F456800146F6DF8E
:10007200E4800B0102040810204080900147E47ED6
:10008200019360BCA3FF543F30E509541FFEE49383
:10009200A360010ECF54C025E060A840B8E493A34A
:1000A200FAE493A3F8E493A3C8C582C8CAC583CA75
:1000B200F0A3C8C582C8CAC583CADFE9DEE780BE2D
:01014F0000AF
:00000001FF
