:030000000200AE4D
:0C00AE00787FE4F6D8FD75810702009E03
:0500D2001200D7D282EC
:0400D7007F02DFFEC7
:0100DB002202
:0C00BA00D282D2811200D7C2810200D78E
:0C00C600D282C2811200D7D2810200D782
:10007900C282EF7004C2818002D2811200D7D2827B
:030089000200D79B
:02003400AE0715
:10003600E4FDEDC39408748094805014EE30E70418
:100046007F018002E4FF120079EE25E0FE0D80E2DA
:010056002287
:10008C00E4FEC2821200D23081030E8002E4FEAF85
:01009C00065D
:01009D002240
:10000300E4FDFCD281ECC3940874809480501A12EE
:10001300008CEF6003430501ECC394077480948064
:100023005004ED25E0FD0C80DCC2821200D7AF0541
:0100330022AA
:0A00DC00C282C2811200D2C2822249
:10005700E4FEC282D2811200D23081111200D70E83
:10006700EED394647480948040EF7F0122C2827F34
:010077000088
:010078002265
:10009E001200BA7F551200341200571200C680FEAD
:00000001FF
