:0300000002050EE8
:0C050E00787FE4F6D8FD75813D020555AC
:100614006765203D2025642C20626169203D2025EA
:0506240064200D0A0036
:0C0629000A083F065B4F666D7D077F6F7F
:07059A001205E07F057E0061
:1005A100D3EF9400EE940040147D7C7C00ED1D702F
:0D05B100011CED4C70F7EF1F70E61E80E39B
:0105BE00221A
:1005BF00E4FDFCEF30E704D2838002C283C285D210
:1005CF0085EF25E0FF0DBD00010CED64084C70E3D5
:0105DF0022F9
:1005E000AE051205BFEE70047FFE8009AF06EF6412
:0D05F0000170057FFD1205BFC284D2842278
:1005FD0053877F75985053890F438920758BFD75EF
:07060D008DFDC2ABD28E226D
:080636008F993099FDC2992251
:030478001205FD6D
:10047B00E4FDAF081205E07D01AF081205E0E4F5DD
:03048B0022F52334
:10048E00AE22AF237C007D0A12035F8C268D27AE31
:10049E0022AF237C007D0A12035F8E288F297BFFFB
:1004AE007A06791485262D85272E85282F852930C5
:1004BE00120065E4F524F52574082529F8E6FFE415
:1004CE00FD12059A74082527F8E6FF7D0112059A9C
:1004DE000525E52570020524C39464E52464809403
:0304EE008040D576
:1004F1000523E52370020522C3943DE5226480941F
:0A05010080408A7F887E131205A156
:03050B0002047B6C
:10051A00020478E493A3F8E493A34003F68001F27B
:10052A0008DFF48029E493A3F85407240CC8C333E2
:10053A00C4540F4420C8834004F456800146F6DFB1
:10054A00E4800B0102040810204080900629E47E12
:10055A00019360BCA3FF543F30E509541FFEE493A6
:10056A00A360010ECF54C025E060A840B8E493A36D
:10057A00FAE493A3F8E493A3C8C582C8CAC583CA98
:10058A00F0A3C8C582C8CAC583CADFE9DEE780BE50
:0106350000C4
:10035F00C2D5EC30E709B2D5E4C39DFDE49CFCEEB9
:10036F0030E715B2D5E4C39FFFE49EFE1203EDC341
:10037F00E49DFDE49CFC80031203ED30D507C3E43C
:06038F009FFFE49EFE2228
:10000300E539242DF8E6053922782A300702782DC0
:10001300E475F0011204420203952000EB7F2ED217
:10002300008018EF540F2490D43440D4FF30040BD5
:10003300EF24BFB41A0050032461FFE53A600215B0
:100043003A053DE53D7002053C30070D782AE4751D
:10005300F001120442EF0203DB0206367403D207F7
:100063008003E4C207F5398B2A8A2B892CE4F53AFD
:10007300F53CF53DE53A60077F2012003E80F575BB
:100083003BFFC201C200C202C203C205C206C208CC
:1000930012000CFF700D3007057F0012004FAF3DBB
:1000A300AE3C22B4255FC2D5C20412000CFF24D09B
:1000B300B40A00501A75F00A783A30D50508B6FF2D
:1000C3000106C6A426F620D5047002D20380D924E3
:1000D300CFB41A00EF5004C2E5D20402024FD2019A
:1000E30080C6D20080C0D20280BCD2D580BAD205ED
:1000F30080B47F2012003E2002077401B53A00400D
:10010300F1120003FF12003E020077D208D20680EC
:1001130095120003FB120003FA120003F94A4B7015
:100123000679207A037BFF20022EE53A602A7E00BF
:100133008E827583001203AE60060EEE653B70F08F
:10014300C2D5EBC0E0EAC0E0E9C0E0EE120296D00F
:10015300E0F9D0E0FAD0E0FB120395FF60AAEBC010
:10016300E0EAC0E0E9C0E012003ED0E02401F9D0AB
:10017300E03400FAD0E0FBE53B0460DCD53BD980FA
:10018300877BFF7A027992D202809C791080027970
:1001930008C206C2088008D2D5790A8004790AC247
:1001A300D5E53B047002F53BE4FAFDFEFF120003C4
:1001B300FC7B08200113120003FD7B1030000A12A0
:1001C3000003FE120003FF7B20EC3382D592D5504F
:1001D30013C3E43000069FFFE49EFEE42001039D69
:1001E300FDE49CFCE4CBF8C201EC700CCFCECDCC8B
:1001F300E824F8F870F38017C3EF33FFEE33FEED16
:1002030033FDEC33FCEB33FB994002FB0FD8E9EBF6
:10021300300105F8D0E0C448B201C0E00AEC4D4E0D
:100223004F78207B0070C2EAB53B0040BCC0E012AF
:100233000298D0F0D0E0200104C4C0E0C4B201C0F1
:10024300F0120027D0F0D5F0EB0200771204520130
:100253001453018E5800E54C00E14201924F019A7C
:0F02630044019A4900FA4301A0550184460184E1
:100272004501844703405000E92D00ED2E01102B6B
:1002820000F123010E2003292A00A94800000108D9
:100292003F3F3F00790AA2D5200314300509B91067
:1002A200020404B9080104A2D52006025001042068
:1002B20002689202B53A005034C0E07F2030031940
:1002C2007F30A20272067205500F1202EFC202C202
:1002D20006C205C2087F30800F300503E9C0E01274
:1002E200003E300503D0E0F9D0E0B53ACC30051736
:1002F2007F30B9100C12003E7F583004077F78809F
:1003020003B9080312003E3002057F2D02003E7F32
:10031200202008F87F2B2006F322920280CF286E3D
:10032200756C6C2900D2011200033001F8C2017809
:100332003A30D50108F60200A92D5043495812005F
:10034200032403B405004001E490033B9312002F01
:0D035200743A12002FD203753A0402018E96
:10039500BB010689828A83E0225002E722BBFE0266
:0903A500E32289828A83E4932299
:1003AE00BB010CE58229F582E5833AF583E0225004
:1003BE0006E92582F8E622BBFE06E92582F8E2224E
:0D03CE00E58229F582E5833AF583E4932268
:1003DB00BB010689828A83F0225002F722BBFE0101
:0203EB00F322FB
:1003ED00BC000BBE0029EF8DF084FFADF022E4CCF4
:1003FD00F875F008EF2FFFEE33FEEC33FCEE9DECBD
:10040D00984005FCEE9DFE0FD5F0E9E4CEFD22ED02
:10041D00F8F5F0EE8420D21CFEADF075F008EF2F4C
:10042D00FFED33FD4007985006D5F0F222C398FD3D
:05043D000FD5F0EA22DA
:10044200FAE6FB0808E6F925F0F618E6CA3AF622BB
:10045200D083D082F8E4937012740193700DA3A339
:1004620093F8740193F5828883E47374029368604D
:06047200EFA3A3A380DF4D
:00000001FF
