:03000000020036C5
:0C003600787FE4F6D8FD75811502007D8E
:10020200020A0000020800000A0C3F065B4F666DFE
:040212007D077F6F76
:1001C700D3EF9400EE940040147D7C7C00ED1D700D
:0D01D700011CED4C70F7EF1F70E61E80E379
:0101E40022F8
:1001A600E4FDFCEF30E704D2838002C283C285D22D
:1001B60085EF25E0FF0DBD00010CED64084C70E3F2
:0101C6002216
:1001E500AE051201A6EE70047FFE8009AF06EF642E
:0D01F5000170057FFD1201A6C284D2842294
:03000B0002000EE2
:10000E00C0E0C0D0C3E50B94ACE50A9426500805B9
:10001E000BE50B7002050A758CDC758A00D0D0D00A
:02002E00E032BE
:0300330002016265
:10016200C0E0C0D075D000C004C005C006C00720E2
:10017200EB25E50945087004C28C800E750A0075EE
:100182000B00D28C758A00758CDC6309FF6308FF53
:100192007F0A7E001201C7D007D006D005D004D056
:0401A200D0D0E032A7
:10011700D2C0D2C2758901758CDCE4F58AD2A9D226
:10012700AFD28C75B760AE0AAF0B7C037DE81200C7
:10013700C2740C2FF8E6FFE4FD1201E5AE0AAF0B1F
:100147007C007D641200C27C007D0A1200C2740C20
:0B0157002DF8E6FF7D011201E580CBD2
:10004200020117E493A3F8E493A34003F68001F2BC
:1000520008DFF48029E493A3F85407240CC8C333BF
:10006200C4540F4420C8834004F456800146F6DF8E
:10007200E4800B0102040810204080900202E47E1A
:10008200019360BCA3FF543F30E509541FFEE49383
:10009200A360010ECF54C025E060A840B8E493A34A
:1000A200FAE493A3F8E493A3C8C582C8CAC583CA75
:1000B200F0A3C8C582C8CAC583CADFE9DEE780BE2D
:0102160000E7
:1000C200BC000BBE0029EF8DF084FFADF022E4CC22
:1000D200F875F008EF2FFFEE33FEEC33FCEE9DECEB
:1000E200984005FCEE9DFE0FD5F0E9E4CEFD22ED31
:1000F200F8F5F0EE8420D21CFEADF075F008EF2F7B
:10010200FFED33FD4007985006D5F0F222C398FD6B
:050112000FD5F0EA2208
:00000001FF
