:03000000020036C5
:0C003600787FE4F6D8FD75811702007D8C
:10020700020CDC00020A0000020800000A0E3F068A
:080217005B4F666D7D077F6FF0
:10000E00E4FDFCEF30E704D2838002C283C285D2C6
:10001E0085EF25E0FF0DBD00010CED64084C70E38B
:01002E0022AF
:1001EA00AE0512000EEE70047FFE8009AF06EF64C2
:0D01FA000170057FFD12000EC284D2842228
:1001CC00D3EF9400EE940040147D7C7C00ED1D7008
:0D01DC00011CED4C70F7EF1F70E61E80E374
:0101E90022F3
:10022000758901E50CFF8F8C850D8AD28CD2A922AD
:03000B000201A14E
:1001A100C0E0C0D075D000C007C3E50B94ACE50A30
:1001B10094265008050BE50B7002050AE50CFF8F2C
:0B01C1008C850D8AD007D0D0D0E03232
:05000300D2C0D2C222B0
:03003300020117B0
:10011700C0E0C0D075D000C004C005C006C007202D
:10012700EB1AE50945087004C28C8010750A007542
:100137000B00D28CE50CFF8F8C850D8A6309FF635A
:1001470008FF7F0A7E001201CCD007D006D005D069
:0601570004D0D0D0E0321C
:10015D00120220120003D2AFAE0AAF0B7C007D64F9
:10016D001200C27C007D0A1200C2740E2FF8E6FF49
:10017D00E4FD1201EAAE0AAF0B7C007D641200C2F1
:10018D007C007D0A1200C2740E2DF8E6FF7D01126F
:04019D0001EA80C42F
:1000420002015DE493A3F8E493A34003F68001F276
:1000520008DFF48029E493A3F85407240CC8C333BF
:10006200C4540F4420C8834004F456800146F6DF8E
:10007200E4800B0102040810204080900207E47E15
:10008200019360BCA3FF543F30E509541FFEE49383
:10009200A360010ECF54C025E060A840B8E493A34A
:1000A200FAE493A3F8E493A3C8C582C8CAC583CA75
:1000B200F0A3C8C582C8CAC583CADFE9DEE780BE2D
:01021F0000DE
:1000C200BC000BBE0029EF8DF084FFADF022E4CC22
:1000D200F875F008EF2FFFEE33FEEC33FCEE9DECEB
:1000E200984005FCEE9DFE0FD5F0E9E4CEFD22ED31
:1000F200F8F5F0EE8420D21CFEADF075F008EF2F7B
:10010200FFED33FD4007985006D5F0F222C398FD6B
:050112000FD5F0EA2208
:00000001FF
