:0300000002008B70
:0C008B00787FE4F6D8FD75810902000EB4
:040069007F887E13FB
:10006D00D3EF9400EE940040147D7C7C00ED1D7068
:0D007D00011CED4C70F7EF1F70E61E80E3D4
:01008A002253
:10000E005389F0438901758CFF758AA4D28CD2A9CD
:10001E00D2AFC2A4C2A375090A12006975091E12D5
:10002E00006975093C12006975096412006980E661
:03000B0002003EB2
:10003E00C0E0C0F0C0D0758CFF758AA40508E50835
:10004E0075F0648485F008E508C395095004D2A3C1
:0B005E008002C2A3D0D0D0F0D0E0326E
:00000001FF
